:020000040800F2
:1000000068050020D5000008590B00083D070008CE
:1000100000000000000000000000000000000000E0
:10002000000000000000000000000000E10D0008DA
:100030000000000000000000F10B00089D0E000809
:100040000501000805010008BD0D000805010008B4
:10005000050100081B05000805010008A5050008AA
:100060000000000035030008050100080501000834
:100070000501000805010008050100080000000056
:100080000501000805010008000000000501000846
:100090000501000805010008050100080501000828
:1000A0000501000805010008050100087D1500088C
:1000B0000501000800000000000000000501000824
:1000C0000348854600F048F800480047DD1700085F
:1000D000680500200C4880F308880C480168090E68
:1000E0000B4A914205D10B480B4901600B480C4962
:1000F00001600C4880470C480047FEE7FEE7FEE73A
:10010000FEE7FEE7FEE700006805002004000000AF
:100110001F00000018100240010000000000014014
:1001200000000000AD0E0008C100000830B50B460D
:10013000014600202022012409E00D46D5409D42C1
:1001400005D31D469540491B254695404019154647
:10015000521E002DF1DC30BD064C0125064E05E097
:10016000E36807CC2B430C3C98471034B442F7D3D8
:10017000FFF7AAFFF81800081819000810B500F0DA
:1001800011F800F007F910BD836A0B4383624261E6
:1001900070470029816801D0012200E0022211434A
:1001A0008160704730B501214D0287B0284600F0CC
:1001B00049FD294C204600F063F8684600F0B1F88C
:1001C0000020694600900871211502914021049099
:1001D000039105906946204600F088F8002202212C
:1001E0002046FFF7D1FF002208212046FFF7CCFF71
:1001F000002210212046FFF7C7FF002220212046C1
:10020000FFF7C2FF002240212046FFF7BDFF00227A
:1002100080212046FFF7B8FF002229462046FFF73D
:10022000B3FF204600F03CF80221204600F020F801
:100230000121204600F012F801212046FFF7A9FF16
:100240000121204600F043F80028F9D0204600F0B4
:1002500063F807B030BD0000002401400029C168E8
:1002600002D00122114301E049084900C1607047F2
:10027000C26802239A43C260C2680A43C2607047E0
:10028000064910B5884208D144150121204600F0E6
:10029000E5FC0021204600F0E1FC10BD00240140F7
:1002A000826800210123DB071A4382600F231B03AE
:1002B0008268491CD20FD207994201D0002AF7D197
:1002C0008168002901DB006C7047002070470246FE
:1002D0000020CB0104D5926801231B069A4300E05D
:1002E00012680A4200D001207047000030B5C26891
:1002F000084B8C681A400B680D792343CC686D035A
:100300002C4323430C69496923430B431343C360C4
:1003100030BD000003D2FFFF8168042211438160D9
:1003200070470021016001718160C160016141611C
:100330007047000010B5022000F09EF800280CD095
:10034000012000F013F807480122016851400160C4
:10035000054803D0802100F0EFF910BD802100F0A6
:10036000E9F910BD6C00002000140048C10001D460
:100370000149486070470000000002400029016800
:1003800002D00122114301E0014A1140016070478F
:10039000FEFF000030B501218DB0084600F02EFCB4
:1003A000174D284600F032F8164801901648029082
:1003B00007200490802006900024400007900394BA
:1003C0008000089020200990059400020A9001A95D
:1003D0000B94284600F066F801220221284600F01E
:1003E00059F80920694608704C70012088706846E9
:1003F00000F0B4FB01212846FFF7C0FF0DB030BD6F
:100400000800024040240140100100200168184A01
:10041000114001600021016041608160C1601549A7
:10042000144A0839904202D148680F2205E0114A67
:100430001432904204D14868F0221043486070475B
:100440000C4A2832904203D148680F221202F4E786
:10045000084A3C32904203D148680F221203ECE76D
:10046000044A50329042EAD148680F221204E4E76D
:10047000FEFF000008000240024600200146D300B3
:1004800001D403490968114200D0012070470000DF
:1004900000000240002A026801D00A4300E08A43BB
:1004A0000260704730B503680C4A0C6A13408A68D2
:1004B0004D6922430C692C4322438C692243CC6949
:1004C00022434C6A22438C6A22431A430260CA6860
:1004D00042600A6882604968C16030BD0F80FFFFDA
:1004E0003EB50121084600F0ADFB0021084600F0B2
:1004F00079FC01240020694600940871102048719D
:100500008C71684600F08CF80520694608724C72C0
:100510008C7202A800F022FB3EBD10B5012000F055
:1005200075F8002803D000BF012000F069F810BD65
:100530003EB50121084600F085FB0C21012000F0AA
:1005400051FC0A21012000F04DFC0B21012000F09C
:1005500049FC0D21022000F045FC01200003009021
:10056000002569460D711020487101248C71684680
:1005700000F056F8A0020090684600F051F8E00242
:100580000090684600F04CF860030090684600F068
:1005900047F80720694608724D728C7202A800F075
:1005A000DDFA3EBD10B501242403204600F02EF8EC
:1005B000002803D000BF204600F022F80124A40246
:1005C000204600F023F8002803D000BF204600F0AA
:1005D00017F80124E402204600F018F8002803D0A0
:1005E00000BF204600F00CF801246403204600F010
:1005F0000DF8002803D000BF204600F001F810BD20
:10060000014948617047000000040140034A014667
:10061000526900200A4200D00120704700040140C6
:1006200010B5837918490268002B26D00B689343D4
:100630000B604A6803689A434A600279521813684B
:100640000468234313608A6803689A438A60CA680F
:1006500003689A43CA604279102A05D051180A6883
:10066000006802430A6010BD8A6803681A438A6002
:10067000CA6800680243CA6010BD0079401801686A
:100680009143016010BD000000040140034A410095
:10069000515A034A8000105801857047A21800087B
:1006A00030000020F0B50022032501230C689340A0
:1006B0001C409C422AD10C79012C01D0022C12D171
:1006C000876854002E46A640B74387604E79A640FF
:1006D00084682643866084889C43848084888B79E0
:1006E00093401C438480066853002C469C40A643DC
:1006F00006600E7907689E403E430660C668A643C2
:10070000C660CC799C40C3681C43C460521C102A4C
:10071000CBD3F0BD4B07DB0E9A40C90810B589005A
:100720000818016A0F249C40A1430162016A114329
:10073000016210BD0185704781617047FEE710B509
:10074000FFF7CEFEFFF7F4FE10BD0000FEB501215D
:10075000480400F053FA0121880400F04FFA012107
:10076000C80400F04BFA0121880500F047FA012087
:100770008002009003256846457105710024C4710C
:1007800009206946C006FFF78DFF022768460097DB
:1007900045710571C47109206946C006FFF782FFE3
:1007A00004200090684645710571C47109206946AE
:1007B000C006FFF777FF0820009068464571057175
:1007C000C47109206946C006FFF76CFF1020009035
:1007D000684645710571C47109206946C006FFF776
:1007E00061FF20200090684645710571C4710920A1
:1007F0006946C006FFF756FF4020009068464571E5
:100800000571C47109206946C006FFF74BFF8020BF
:100810000090684645710571C47109206946C0069B
:10082000FFF740FFF8010090684607714571847139
:10083000C47109206946C006FFF734FF092002226F
:100840000821C006FFF766FF38020090684607716E
:1008500045718471C47109206946C006FFF722FF03
:1008600009210222C806FFF755FF780200900126F1
:100870006846067144718471C47109206946C006D6
:10088000FFF710FFF0020090684604714471867112
:10089000C67109206946C006FFF704FF30030090C7
:1008A000684644710471867109206946C006FFF7E5
:1008B000F9FEF003009068464471067184710920C6
:1008C0006946C006FFF7EEFE0920F103C006FFF7F8
:1008D00031FF68460096457107718471C47169469D
:1008E0009A48FFF7DFFE012200219848FFF712FF28
:1008F0006846009745710571C47169469348FFF7D2
:10090000D1FE0420009068464471047186716946E6
:100910008E48FFF7C7FE08200090684646710671B2
:10092000847169468948FFF7BDFE08218748FFF7B3
:1009300003FF102000906846467106718471C471EF
:1009400069468248FFF7AEFE10218048FFF7F4FEAB
:10095000202000906846467107718471C471694611
:100960007A48FFF79FFE012205217848FFF7D2FE63
:10097000402000906846457107718471C4716946D2
:100980007248FFF78FFE002206217048FFF7C2FE73
:1009900040216E48FFF7D0FE8020009068464571E8
:1009A0000771C67169466948FFF77CFE002207217E
:1009B0006648FFF7AFFE3002009068464571067149
:1009C000847169466148FFF76DFE31025F48FFF7A9
:1009D000B1FE7002009068464571067184716946E7
:1009E0005A48FFF75FFE71025848FFF7A3FEB002B6
:1009F0000090684645710471C67169465348FFF717
:100A000051FEF0020090684645710471C671694656
:100A10004E48FFF747FE3003009068464571047169
:100A2000C67169464948FFF73DFE7003009068466D
:100A3000457107718471C47169464448FFF732FEFD
:100A400002220D214148FFF765FEB0030090684681
:100A5000457107718471C47169463C48FFF722FEF5
:100A600002220E213948FFF755FEF0030090684638
:100A700045710671847169463448FFF713FEF1032E
:100A80003248FFF757FE70030090684644710671C4
:100A90002F4DC67169462846FFF704FE71032846AC
:100AA000FFF74AFEB00300906846447106718471F6
:100AB00069462846FFF7F6FDB1032846FFF73AFEE0
:100AC000F0030090684644710671847169462846B7
:100AD000FFF7E8FDF1032846FFF72CFE6846009675
:100AE000447106711B4D847169462846FFF7DAFD93
:100AF00001212846FFF71EFE6846009744710671E3
:100B0000C67169462846FFF7CDFD01212846FFF74B
:100B100011FE402000906846467106718471694656
:100B20002846FFF7BFFD40212846FFF703FE80203F
:100B30000090684646710671847169462846FFF741
:100B4000B1FD80212846FFF7F5FDFEBD00040048F9
:100B500000080048001400487047000030B5827853
:100B600001240178002A15D08B080E4A9B009A18A0
:100B700013688907C90EFF258D40AB434578AD0743
:100B80002D0E8D401D4315600078C006C00E8440B8
:100B9000054804E0C806C00E844003488030046065
:100BA00030BD000000E400E000E100E08307FF2228
:100BB000DB0E9A408907090E994000280BDA0007DE
:100BC000000F0838830808489B001818C36993432E
:100BD0000B43C3617047830804489B0018180368DF
:100BE00093430B430360704700ED00E000E400E036
:100BF000704710B5FFF7AAFD10BD0000044A002998
:100C0000516901D0014300E0814351617047000008
:100C100000100240044A0029D16901D0014300E0DC
:100C20008143D1617047000000100240044A00294E
:100C3000116901D0014300E0814311617047000058
:100C400000100240044A0029916901D0014300E0EC
:100C5000814391617047000000100240044A00295E
:100C6000D16801D0014300E08143D16070470000AA
:100C700000100240F8B5354E0446716800200C2281
:100C8000334D114005D0042903D0082903D00C2985
:100C900018D0256018E07168706803228902D203B9
:100CA0000F0F1040BF1C002809D0F06A0107090F80
:100CB0002846491CFFF73AFA7843206004E02548AB
:100CC0007843FAE7244921607168244F0906090F27
:100CD0007B5C21680A46DA40626073685B055B0FE3
:100CE000FB5CDA40A260336BDB0501D41C4B05E0F2
:100CF00073685B0401D4530800E09308E360336B2E
:100D0000DB0601D4656100E06161336B9B070ED0A7
:100D1000336B9B079B0F012B0BD0316B8907890F1E
:100D2000022908D0316BC943890707D007E0A261C7
:100D300005E0A16103E00121C903FAE7A561E261D1
:100D4000316B090600D404486062F8BD001002400F
:100D500000127A0000093D00006CDC021400002043
:100D6000809FD50000098021084380B2034AC34315
:100D7000D06808400343D36070470000002800405B
:100D800070B50D4A0021126804230B4C1A40403CF8
:100D9000A368860C0546F540ED0B15400340E2685C
:100DA0002B4300090240002B03D01004000C00D09C
:100DB0000121084670BD00004028004010B5012404
:100DC00024032046FFF7DCFF002808D00320FFF7AC
:100DD0005DFC2046FFF7C6FF6001FFF711FC10BD68
:100DE000704700008A0710B5120F0F2393408C083C
:100DF0000549A40061188C689C438C608B68904006
:100E000003438B6010BD0000000001403CB500238F
:100E100020480093019301680124214301600221CD
:100E200005252D0302680A400192009A521C009287
:100E3000019A002A02D1009AAA42F3D102689207CD
:100E400026D5154B1F2201941A6042684260426801
:100E5000426042687F23DB039A4342604268212359
:100E6000DB031A434260026801231B061A43026037
:100E700002689201FCD54268920892004260426882
:100E80000A43426041680907890F0229FAD13CBD33
:100E900001933CBD0010024000200240024841681E
:100EA000491C4160704700005C00002010B51448E8
:100EB00001680122114301604168124A11404160FA
:100EC0000168114A114001600168012292049143B6
:100ED000016041683F22120491434160C16A0909DF
:100EE0000901C162016BFF22543291430163416BDE
:100EF00049084900416300218160FFF787FF10BD69
:100F0000001002400CB8FFF8FFFFF6FE30B50121DB
:100F100089B00804FFF796FE194D284600F018F92D
:100F200005A800F0C9FA684600F07EFA0024684679
:100F300084821448069068468483C48205A92846A2
:100F400000F080FA602168460180012141808480A0
:100F5000848109020182642002906946284600F0DB
:100F600047F90821284600F081F90121284600F0C0
:100F7000D8F80121284600F0DEF809B030BD0000A5
:100F8000004001405F09000070B50121CD028CB026
:100F90002846FFF757FE324E304600F0D9F809A830
:100FA00000F08AFA684600F03FFA0024684684841C
:100FB000BF200A9068468485C48409A9304600F0A1
:100FC00041FA60216846018001214180042181802D
:100FD00084818C010482642002906946304600F0CE
:100FE00007F96946304600F047F96946304600F097
:100FF00095F96946304600F0DBF90821304600F0EB
:1010000035F90821304600F07FF90821304600F01C
:10101000C9F90821304600F0FDF968468582A10033
:10102000C182048310214183090281834900C18365
:101030004900018405A9304600F062F801213046DC
:1010400000F06FF80121304600F075F8BF213046FE
:1010500000F0F4F94C21304600F0F2F90CB070BD0C
:10106000002C014030B589B001210220FFF7D2FDEC
:10107000214D284600F06CF805A800F01DFA6846DE
:1010800000F0D2F90024684684821C480690684625
:101090008483C48205A9284600F0D4F960216846FB
:1010A00001800121418084808481090201826420C1
:1010B00002906946284600F09BF86946284600F0F1
:1010C000DBF86946284600F029F90821284600F097
:1010D000CDF80821284600F017F90821284600F02D
:1010E00061F90121284600F01CF80121284600F092
:1010F00022F809B030BD0000000400405F09000084
:1011000010B50A884B88CC881A438B8823431A432E
:101110000B891A434B8989891A430A4340308280DC
:1011200010BD0029018802D00122114301E04908C5
:1011300049000180704740300029818803D0012296
:10114000D203114301E04904490C8180704700003B
:10115000204910B5884202D10121C41425E01E495E
:10116000884206D101210220FFF760FD0021022004
:1011700008E01A49884208D101211020FFF756FDE6
:1011800000211020FFF752FD10BD1549884207D1FC
:10119000841501212046FFF749FD00212046F1E793
:1011A0001049884209D101210C042046FFF756FD61
:1011B00000212046FFF752FD10BD0B49884202D1A5
:1011C00001214C04F1E709498842F5D101218C0441
:1011D000EBE70000002C014000040040001000403C
:1011E0000020004000400140004401400048014010
:1011F00070B5028C520852000284048C8288038BE2
:101200007025AB439B080D889B001D4302239C4324
:101210008E894B882643104C3343A04208D00F4C94
:10122000A04205D00E4CA04202D00E4CA0420DD1DF
:101230000824A343CC891C4304239C438B88234369
:10124000094C22400C8A14434A8A22438280058337
:1012500089684163038470BD002C01400040014057
:101260000044014000480140FFFC0000028B0823BD
:101270009A430A430283704770B5028C10239A4345
:101280000284048C8288038B1A4D2B400D782D0626
:101290002D0C1D4320239C438B891B051E0C4B8862
:1012A00026431B051B0C144C3343A04202D0134EA3
:1012B000B04219D1124E32400E8AB604360C324377
:1012C000A04211D18024A343CC892405240C1C43C3
:1012D00040239C438B881B051B0C2343094C224055
:1012E0004C8AA404240C224382800583896881638C
:1012F000038470BDFF8C0000002C014000400140C1
:10130000FFFB0000FFF70000028B034B09021A40AD
:101310001143018370470000FFF7000030B5028CD5
:101320001A4B1A400284038C8288848B7025AC434C
:10133000A4080D88A4002543154C23400C7B2406EB
:10134000240C1C438B781B061B0C2343114CA0421E
:1013500015D1114C23408C7B2406240C1C430F4BCD
:101360001C400B791B061B0C23430D4C22400C8A9E
:101370002405240C14434A8A1205120C224382804D
:1013800085838968C163038430BD0000FFFE0000CF
:10139000FFFD0000002C0140FFF70000FFFB0000F4
:1013A000FFCF0000828B08239A430A438283704751
:1013B00030B5028C124B1A400284058C8288838BD4
:1013C000104C23400C782406240C1C430E4B1D406B
:1013D0000B7B1B071B0C2B438D782D072D0C1D43FE
:1013E0000A4B984205D10A4B13400A8A9205120C07
:1013F0001A438280848389680164058430BD0000BB
:10140000FFEF0000FF8C0000FFDF0000002C014018
:10141000FFBF0000828B034B09021A4011438183F6
:1014200070470000FFF700000021018041808180AB
:1014300081608181C181018241827047416370472F
:101440008163704710B50288144B984206D001247E
:10145000A407A04202D0124CA04203D17024A243A0
:101460004C8822430F4CA04203D00F4C22400C89E1
:10147000224302804A68C2620A880285984208D0E4
:101480000A4A904205D00A4A904202D0094A904244
:1014900001D1897A01860121818210BD002C014091
:1014A0000004004000100040FFFC0000004001402C
:1014B00000440140004801400021C943416000212F
:1014C0000180018141808172704700000C4D0D4CFC
:1014D000002626600CE040198279022A05D2001D00
:1014E00088472168C900491988712068401C20601C
:1014F0002268D00029580029EBD0102AE9D2EAE767
:10150000900000205C000020F0B50022134D00E0A8
:10151000521CD4002B59002B03D0834201D0102A37
:10152000F6D3D300EF5800230526874203D1601974
:10153000838083710DE0102A0DD0285160198380BB
:101540008371074802710C22427010224271C0223E
:1015500042800E70F0BD06200870F0BD90000020A3
:101560006400002010B5FFF7D1FC10BD10B5FFF7E7
:101570000BFD10BD10B5FFF775FD10BD70B51D4D0D
:101580001B49284600F048F8002812D01A4C0120C8
:101590006061284600F0C0F840066168400E174AB6
:1015A0005218491C6160107014216068FEF7BEFD7E
:1015B0006160134E2846314600F02EF800280FD007
:1015C0000D4C1834207900280BD02068017828466B
:1015D00000F0A6F82068401C20602079401E207191
:1015E00070BD00223146284600F032F870BD000080
:1015F0000501050000380140700000203C0100207A
:10160000070107000029016802D00122114301E00F
:10161000490849000160704730B50A04130E0125DE
:101620002A4600248A40012B0ED0022B0ED083685C
:10163000090C1340C0698D402840002B02D00028BF
:1016400000D00124204630BD0368F1E74368EFE78E
:1016500010B50B041C0E01238B40022C02D0032C6E
:1016600002D002E0001D00E008300168002A01D02D
:10167000194300E09943016010BD000070B50446B5
:1016800000688AB00D46002640084000206060686F
:10169000032109038843A9680143616020681A494E
:1016A000EA680840696811432A69024311432160CE
:1016B000A06803210902884369690143A160684663
:1016C000FFF7D8FA1148844201D1069E03E0104882
:1016D000844200D1079E20682968000401D570006B
:1016E00000E03046FEF722FD2A6852088A4200D800
:1016F000401C2168090404D50107064A490F10401F
:101700000843A0810AB070BDF3E9FFFF0038014033
:1017100000440040F0FF0000808CC005C00D704701
:10172000C905C90D0185704730B5012189B048044C
:10173000FFF764FA01218803FFF784FA1C4D0022A9
:1017400007212846FEF7E6FF002206212846FEF77D
:10175000E1FFC02000900220694608710320487113
:1017600000248C71CC712846FEF79CFF1B20694633
:10177000087201204872887202A8FFF7EFF94B2027
:101780000894C00104940594069403900C20094C1D
:10179000079003A92046FFF771FF01220649204662
:1017A000FFF756FF01212046FFF72CFF09B030BD9F
:1017B00000040048003801400501050002E008C8A7
:1017C000121F08C1002AFAD170477047002001E0BB
:1017D00001C1121F002AFBD17047000012487D2171
:1017E000C9000068FEF7A2FC411E10480025ED4329
:1017F000814203D9012000280AD0FEE70C4C616128
:1018000003212846FFF7D2F90020A06107202061BC
:1018100003212846FFF7CAF906490748FFF774FE77
:10182000FFF754FEFEE7000000000020FFFFFF006E
:1018300000E000E0640000203D18000810B50446F8
:101840000088002805D01C2811D00020208003200B
:1018500010BDFFF7CEF9FEF772FFFFF787FEFFF727
:1018600089FEFFF77FFEFEF789FCFFF75DFF1C2076
:101870002080012010BD0000090A010100020004BF
:10188000004000000000020000000200020102020D
:101890000202000D080809060700070707070707E7
:1018A000050000040008001004000000000008000B
:1018B00000000800000008000000100000200001E7
:1018C000000100024000800001000000000008004C
:1018D00000000400000008000000080000000800EC
:1018E00000000800000002000020000100010002CA
:1018F00040008000010000001819000800000020CE
:1019000090000000BC170008A819000890000020F3
:10191000D8040000CC170008006CDC0200000000B6
:10192000000000000102030406070809000000008F
:1019300001020304010203040607080900380140FC
:101940000000004800000048000800480008004867
:1019500000080048000C0048000800480004004847
:101960000008004800080048000800480008004837
:10197000000000480000000000000000000000001F
:101980001000000000000000000000000000000047
:101990000000000000000000000000000000000047
:0819A00000000000000000003F
:04000005080000C12E
:00000001FF
