:020000040800F2
:1000000050040020D50000088D0400088904000871
:1000100000000000000000000000000000000000E0
:10002000000000000000000000000000D10D0008EA
:10003000000000000000000005060008B50F0008E1
:100040000501000805010008D10A000805010008A3
:1000500005010008050100080501000895010008D8
:100060000000000005010008050100080501000866
:100070000501000805010008050100080000000056
:100080000501000805010008000000000501000846
:100090000501000805010008050100080501000828
:1000A0000501000805010008050100080501000818
:1000B0000501000800000000000000000501000824
:1000C0000348854600F048F80048004769100008DA
:1000D000500400200C4880F308880C480168090E81
:1000E0000B4A914205D10B480B4901600B480C4962
:1000F00001600C4880470C480047FEE7FEE7FEE73A
:10010000FEE7FEE7FEE700005004002004000000C8
:100110001F00000018100240010000000000014014
:1001200000000000CD0F0008C100000830B50B46EC
:10013000014600202022012409E00D46D5409D42C1
:1001400005D31D469540491B254695404019154647
:10015000521E002DF1DC30BD064C0125064E05E097
:10016000E36807CC2B430C3C98471034B442F7D3D8
:10017000FFF7AAFFE01100080012000801B50449CA
:100180000098086000BF024800680028FBD108BD45
:100190001400002010B50120400300F011F80028E1
:1001A00006D00120400300F005F8012000F08EF891
:1001B00010BD000001494861704700000004014083
:1001C00001460020044A52690A40002A01D0012059
:1001D00000E0002070470000000401400021204999
:1001E0008279002A35D00A46126803689A430B4682
:1001F0001A600A46526803689A430B465A600279AD
:1002000051180A6803681A430A60154A926803681D
:100210009A43134B9A601A46D26803689A43104B6C
:10022000DA604279102A0CD11A46926803681A43A0
:100230000B4B9A601A46D26803681A43084BDA607F
:100240000DE00749427951180A6803681A430A60A9
:1002500005E0027951180A6803689A430A607047FA
:10026000000401401CB50446A1000F4A505801216A
:1002700000F0CAF960000D49085A00900121684653
:10028000017100218171C17103214171A100084AEE
:100290005058694600F08EF860000449085AA100E1
:1002A000034A515888611CBD6C1100086411000894
:1002B000180000204100034A515A8200024B9A580C
:1002C0009161704764110008180000204100034A42
:1002D000515A8200024B9A581185704764110008E8
:1002E000180000208100064A5158898A4200054BB7
:1002F0009A5A51408200024B9A58918270470000EE
:10030000180000206411000830B585B004460D4681
:10031000A100214A5058012100F076F90121084638
:1003200000F092F9002168460174C17460001B4915
:10033000085A0390A1001A4A505803A900F03AF84D
:10034000012D26D1174A115D174A105D00F042FDBC
:1003500060001649085A0190002069460872002C76
:1003600004D0012C02D00820487202E00C2069461B
:10037000487201216846817201A8FFF72FFF0C48DF
:10038000015D68460170032141700121817000F018
:100390007FF805B030BD00008C1100087C1100080A
:1003A00028000020BD110008B6110008A81100089F
:1003B000C4110008F0B50A4600210023002400BF44
:1003C0003DE001258D402B4615681D402C469C4282
:1003D00034D11579012D02D01579022D16D18568F9
:1003E0004F000326BE40B543856055794E00B540A9
:1003F000866835438560858801268E40B5438580B3
:10040000858896798E40B6B23543858005684F0061
:100410000326BE40B543056015794E00B540066819
:1004200035430560C5684F000326BE40B543C5602F
:10043000D5794E00B540C6683543C560491C1029C2
:10044000BFD3F0BDF0B5002300244D07EE0E1546D6
:10045000B5402B46CD10AE0005462035AD594E07B0
:10046000F70E0F26BE40B543CE10B6000746203724
:10047000BD51CD10AE003D46AD591D432C46CD10AB
:10048000AD003E467451F0BD00BFFEE7704700006E
:1004900000218278002A27D0184A03231B02D21891
:1004A00003789B109B00D15802789207D30EFF224D
:1004B0009A400B469343194642789207120E0378EE
:1004C0009B07DB0E9A4011430C4A03231B02D218F0
:1004D00003789B109B00D1500278D306DB0E0122DB
:1004E0009A40064B1A6007E00278D306DB0E012221
:1004F0009A40024B80331A607047000000E100E030
:1005000010B5002819DA1A4A03071B0F083B9B088D
:100510009B00D2588307DC0EFF23A3409A438B072E
:100520001B0E8407E40EA3401A43114B0407240F4B
:10053000083CA408A4001A5118E00E4A03231B0229
:10054000D21883089B00D2588307DC0EFF23A340F8
:100550009A438B071B0E8407E40EA3401A43054BF6
:10056000032424021B198408A4001A5110BD0000A2
:100570001CED00E000E100E0002807D00749096811
:10058000FF2201321143054A116006E00349096860
:10059000FF2201329143014A116070470070004010
:1005A00010B502460020154B1868800880000346ED
:1005B00013431846114B1860114B1B690424234345
:1005C0000F4C2361012907D130BF23461B69042446
:1005D000A3430B4C23610FE0022907D120BF084B36
:1005E0001B690424A343064C236105E0044B1B69EB
:1005F00002242343024C236110BD00000070004020
:1006000000ED00E070470000002905D0054A52695E
:100610000243044B5A6104E0024A52698243014B8F
:100620005A61704700100240002905D0054AD2697E
:100630000243044BDA6104E0024AD2698243014B6F
:10064000DA61704700100240002905D0054A92691E
:100650000243044B9A6104E0024A92698243014BCF
:100660009A61704700100240002807D00749096AC4
:10067000012212041143054A116206E00349096A86
:10068000012212049143014A116270470010024096
:1006900010B502460021002300205111002902D18B
:1006A0000C4C23680BE0012902D10A4C236A06E0B6
:1006B000022902D1074C636A01E0064C636BD10644
:1006C000C90E01248C401C40002C01D0012000E008
:1006D000002010BD001002400849096A490849007D
:1006E000064A11621146096A04229143034A1162C3
:1006F0001146096A01431162704700000010024070
:1007000002460020044B58680002000A13060B43FF
:100710001843014B5860704700100240002807D072
:100720000749096A0122D2031143054A116206E012
:100730000349096A0122D2039143014A11627047B9
:10074000001002400249096A0143014A11627047E0
:100750000010024038B50246002400940023002017
:10076000CA24174D6C6253246C62002905D02C46B4
:10077000A4681443AC6001201DE0114CA4689443AC
:100780000F4DAC6000BF0E4CE468150A2C402346A8
:10079000009C641C00940125AD03009CAC4201D078
:1007A000002BF0D0064CE468150A2C40002C01D137
:1007B000002000E00120FF24014D6C6238BD0000E4
:1007C0000028004010B586B005A9002000F052F9BD
:1007D0006846847D03E005A9002000F04BF96846D7
:1007E000807DA042F7D000216846C171017D017172
:1007F000417D4171807D401DC1B2684681711F21DC
:100800000174002003900B48029001AAFF210131DE
:10081000002000F0CFF90121080300F06DF901215B
:100820000802FFF797FF0120000300F021F806B04F
:1008300010BD000000808080014600BFF02008400D
:1008400000110A23584302460807000F8018C0B25F
:1008500070470146002204E0501CC2B208460A3824
:10086000C1B20A29F8DA1007000E084370470000E9
:1008700010B50021010980220A4392B2D243044BF1
:10088000DB68802423401A43014BDA6010BD00006E
:100890000028004000B587B001210807FFF7C4FE1B
:1008A0000120FFF769FE0120FFF7DEFE0020FFF7C1
:1008B000DBFE0120FFF710FF00BF2120FFF7E8FE5D
:1008C0000028FAD0FF200130FFF73CFF0120FFF79E
:1008D00025FF00F037F800F045FA002003907F2054
:1008E0000490FF20059003A800F038F9002801D1FA
:1008F00000BFFEE700216846C17601210176002194
:100900004176817606A9012000F0C0F9012040045B
:10091000FFF750FC0120400401900021684601725D
:10092000082141720121817201A8FFF757FC0221C1
:10093000684601700021417001218170FFF7A8FD18
:1009400007B000BD10B50024CA20164948625320E4
:10095000486200F02DF8002800D11DE00020114968
:1009600008601148486008468068002088600F4889
:1009700008610020C861C862C8630A494031486004
:100980000849C86007494031086000F0EBF90028C9
:1009900001D1002400E00124FF20024948622046E2
:1009A00010BD00000028004001210000FF007F0072
:1009B00008B50022009200200021124AD26840238C
:1009C0001A40002A1BD1421E0E4BDA6000BF0D4AAE
:1009D000D26840231A401146009A521C00921B0212
:1009E000009A9A4201D00029F1D0064AD2684023E9
:1009F0001A40002A01D0012002E0002000E001207E
:100A000008BD0000002800400648C06880218843D7
:100A10000449C86000BF0348C0684021084000285E
:100A2000F9D170470028004070B50146002000222F
:100A300000230F4C246804252C4022460C4C403CDB
:100A4000A4680C408E0C0D46F540ED0B15402C4370
:100A50002346074C403CE4680D092C402246002BFD
:100A600004D094B2002C01D0012000E0002070BD21
:100A70004028004070B506460C4600251248006824
:100A80001249084005463F2000042840000C207011
:100A90007F2000022840000A60706806400EA070A7
:100AA000012080052840000CE070002E0BD120783A
:100AB000FFF7C2FE20706078FFF7BEFE6070A0787E
:100AC000FFF7BAFEA07070BD002800407F7F7F0056
:100AD00010B501200003FFF7A7FF00280AD003206C
:100AE000FFF7F4FB01200003FFF7C2FE01204004E2
:100AF000FFF760FB10BD000010B5CA22164B5A620A
:100B000053225A62002911D01A46926804240346DF
:100B1000A3431A43104B9A600F4A403212680423D1
:100B200003401A430C4B40331A6010E00A4A9268A3
:100B300004240346A3439A43074B9A60064A403273
:100B40001268042303409A43034B40331A60FF2288
:100B5000014B5A6210BD00000028004030B5044629
:100B60000025CA201249486253204862FFF720FF3F
:100B7000002800D117E00E488068402188430C49C6
:100B80008860084680682168084309498860A06831
:100B9000086108460069A1880904084304490861FE
:100BA000FFF732FF0125FF2001494862284630BD8A
:100BB00000280040F8B5054614460026002D0ED149
:100BC0003148806840210840002800D002E0002021
:100BD000E07000BFA068002800D11BE01AE02A489E
:100BE000806840210840002804D02078FFF724FEC8
:100BF000064602E00020E07000BFA068002804D193
:100C0000207BFFF719FE064604E0207BFFF714FE69
:100C1000064600BF002D12D020780004617809023A
:100C20000843A1780843E17809040843217B0906B9
:100C30000843A168084361680843064619E0207824
:100C4000FFF707FE07046078FFF703FE0002074383
:100C5000A078FFF7FEFD0743E07800040743207B00
:100C6000FFF7F7FD00060743A068074360680743E6
:100C70003E46CA2004494862532048620846C6617D
:100C8000FF204862F8BD000000280040F8B5054686
:100C90000C46002600200090002D0AD12F488068C5
:100CA00040210840002800D002E00020E07000BF92
:100CB0000EE02A48806840210840002804D02078AF
:100CC000FFF7BAFD064602E00020E07000BF00BF5B
:100CD000002D0BD020780004617809020843A17828
:100CE0000843E17809040843064610E02078FFF73E
:100CF000B0FD07046078FFF7ACFD00020743A07861
:100D0000FFF7A7FD0743E078000407433E46CA20EB
:100D10001249486253204862FFF74AFE002801D179
:100D2000009016E00E4830400C490860FFF76CFE5A
:100D30000A48806820210840002808D100F012F8F5
:100D4000002801D1009004E00120009001E0012082
:100D50000090FF20014948620098F8BD002800403B
:100D60007F7F7F0008B50022009200200021174AF3
:100D7000926820231A40002A01D0012025E0CA22CF
:100D8000124B5A6253225A621A46D268A0239A43DF
:100D90000E4BDA6000BF0D4AD26820231A4011467C
:100DA000009A521C00929B02009A9A4201D000299C
:100DB000F1D0064AD26820231A40002A01D001202F
:100DC00000E00020FF22014B5A6208BD00280040CD
:100DD0007047000030B500228B071C0F0F23A34083
:100DE0001A460B4B8C10A4001B599343084C8D10D2
:100DF000AD00635123468C10A4001B598C07250FAE
:100E00000446AC402343024C8D10AD00635130BD0D
:100E1000080001400CB50020019000902F480068A8
:100E2000012108432D49086000BF2C4800680221B9
:100E3000084000900198401C01900098002804D1BF
:100E40000521090301988842EFD124480068022156
:100E50000840002802D00120009001E0002000900E
:100E60000098012838D11F201D4908601B484068A0
:100E70001A494860084640684860084640687F2133
:100E8000C90388431549486008464068C9000843BB
:100E900012494860084600680121090608430F49C5
:100EA000086000BF0D48006801214906084000287D
:100EB000F8D00A4840688008800008494860084621
:100EC0004068022108430549486000BF0348406864
:100ED0000C2108400828F9D10CBD00000010024088
:100EE000002002400CB50020019000902F480068BF
:100EF000012108432D49086000BF2C4800680221E9
:100F0000084000900198401C01900098002804D1EE
:100F10000521090301988842EFD124480068022185
:100F20000840002802D00120009001E0002000903D
:100F30000098012838D11F201D4908601B484068CF
:100F40001A494860084640684860084640687F2162
:100F5000C90388431549486008464068C9000843EA
:100F600012494860084600680121090608430F49F4
:100F7000086000BF0D4800680121490608400028AC
:100F8000F8D00A4840688008800008494860084650
:100F90004068022108430549486000BF0348406893
:100FA0000C2108400828F9D10CBD000000100240B7
:100FB0000020024010B504480068401E0249086045
:100FC0000220FFF78FF910BD1400002010B51B4858
:100FD000006801210843194908600846406818491B
:100FE00008401649486008460068164908401349F9
:100FF0000860084600680121890488430F49086099
:10100000084640683F21090488430C494860084667
:10101000C06A00090001C8620846006BFF21543114
:101020008843064908630846406B4008400048630F
:1010300000208860FFF756FF10BD0000001002403E
:101040000CB8FFF8FFFFF6FE02E008C8121F08C147
:10105000002AFAD170477047002001E001C1121F39
:10106000002AFBD1704700001CB501210020FFF7CA
:101070004BF90020FFF7F6F80120FFF7F3F8032003
:10108000FFF7F0F80220FFF7EDF801214804FFF721
:10109000BBFAFF2001300090022168460171002157
:1010A0008171032141710021C17169460920C00687
:1010B000FFF780F9002208210920C006FFF7C2F9D6
:1010C000032109070420FFF71BFB64212248006865
:1010D000FFF72CF80446601E2049884201D9012000
:1010E0000CE0601E1E4948610321081FFFF708FA43
:1010F00000201B498861072008610020002801D0DA
:1011000000BFFEE7FFF7C6FB0020FFF7DFF821E096
:10111000FF20F530FFF732F8FFF754FB0020FFF710
:10112000C9F80120FFF7C6F80320FFF7C3F8012133
:101130000846FFF735FA0020FFF7C8F80021012024
:101140000003FFF7D9FC0021FF200130FFF702FB6D
:10115000FFF760FEDCE7000000000020FFFFFF005B
:1011600000E000E000040008001004000000080097
:10117000000008000000080000001000002000012E
:101180000001000240008000010000000000080093
:101190000000040000000800000008000000080033
:1011A0000000080000000200002000010001000211
:1011B000400080000100020102020202000D080846
:1011C000090607000707070707070500004000009A
:1011D000000002000000020000020004090A0101F0
:1011E0000012000800000020500000004810000815
:1011F00050120008500000200004000058100008A1
:10120000006CDC020000000000000000010203048A
:101210000607080900000000000800480008004810
:1012200000080048000C004800080048000400487E
:10123000000800480008004800080048000800486E
:10124000000000480038014000000048000000484D
:04000005080000C12E
:00000001FF
