:020000040800F2
:10000000E8040020D5000008290800086D02000857
:1000100000000000000000000000000000000000E0
:10002000000000000000000000000000C9080008F7
:1000300000000000000000002B0800085D09000817
:100040000501000805010008A508000805010008D1
:100050000501000805010008050100087D010008F0
:100060000000000005010008050100080501000866
:100070000501000805010008050100080000000056
:100080000501000805010008000000000501000846
:100090000501000805010008050100080501000828
:1000A0000501000805010008050100080501000818
:1000B0000501000800000000000000000501000824
:1000C0000348854600F048F800480047A90A0008A0
:1000D000E80400200C4880F308880C480168090EE9
:1000E0000B4A914205D10B480B4901600B480C4962
:1000F00001600C4880470C480047FEE7FEE7FEE73A
:10010000FEE7FEE7FEE70000E80400200400000030
:100110001F00000018100240010000000000014014
:10012000000000006D090008C100000830B50B4652
:10013000014600202022012409E00D46D5409D42C1
:1001400005D31D469540491B254695404019154647
:10015000521E002DF1DC30BD064C0125064E05E097
:10016000E36807CC2B430C3C98471034B442F7D3D8
:10017000FFF7AAFFBC0B0008DC0B000810B5012438
:100180006403204600F010F8002805D0204600F057
:1001900005F8012000F012F810BD00000149486187
:1001A0007047000000040140034A014652690020E4
:1001B0000A4200D00120704700040140034A410078
:1001C000515A034A8000105801857047660B000899
:1001D00020000020F0B50022032501230C68934085
:1001E0001C409C422AD10C79012C01D0022C12D146
:1001F000876854002E46A640B74387604E79A640D4
:1002000084682643866084889C43848084888B79B4
:1002100093401C438480066853002C469C40A643B0
:1002200006600E7907689E403E430660C668A64396
:10023000C660CC799C40C3681C43C460521C102A21
:10024000CBD3F0BD4B07DB0E9A40C90810B589002F
:100250000818016A0F249C40A1430162016A1143FE
:10026000016210BD0185704781617047FEE70000A3
:10027000F8B504460088002806D0FF386A2876D0F2
:10028000002020800320F8BD5E4D012168685E4E8D
:1002900048405E4F68603946304602D0FFF7E4FFC1
:1002A00001E0FFF7DFFF686859490028304602D0B7
:1002B000FFF7DAFF01E0FFF7D5FF6868554E002829
:1002C00004D001213046FFF7CFFF03E00121304683
:1002D000FFF7C8FF6868002804D004214E48FFF7E4
:1002E000C3FF03E004214C48FFF7BCFF012168680D
:1002F00049030028484802D0FFF7B6FF01E0FFF7A6
:10030000B1FF686839460028434802D0FFF7ACFFC8
:1003100001E0FFF7A7FF68683D4900283E4802D08A
:10032000FFF7A2FF01E0FFF79DFF6868002804D0F7
:1003300040213046FFF798FF03E040213046FFF7A9
:1003400091FF6868002804D080213046FFF78CFFB9
:1003500003E080213046FFF785FF09266868F6062E
:1003600000282B49304603D0FFF77EFF02E040E033
:10037000FFF778FF6868002804D008212648FFF7B7
:1003800073FF03E008212448FFF76CFF0121686830
:1003900009030028304602D0FFF766FF01E0FFF7AF
:1003A00061FFFF216868013100281B4802D0FFF778
:1003B0005BFF01E0FFF756FF012168684902002852
:1003C000154802D0FFF750FF01E0FFF74BFF6868C8
:1003D000002804D040211048FFF746FF03E04021E9
:1003E0000D48FFF73FFF074800F058FBFF206A3039
:1003F00020806421034800F045FB002800D043E73B
:10040000F8BD00005C00002000080048004000002B
:10041000008000000014004800040048FEB50121DF
:10042000480400F007FA0121880400F003FA0121D2
:10043000C80400F0FFF90121880500F0FBF9012054
:10044000400300900324684644710025057101268D
:10045000C6716946F148FFF7BDFEB00300906846DB
:100460004471067185716946EC48FFF7B3FEB1032C
:10047000EA48FFF7F7FEF003009068464471067102
:1004800085716946E548FFF7A5FEF103E348FFF7EC
:10049000E9FE684600964471067185716946E04838
:1004A000FFF798FE0121DE48FFF7DCFE02276846D1
:1004B000009744710571C6716946D948FFF78AFEF5
:1004C0006846009644710571C67109206946C006E8
:1004D000FFF780FE092000220221C006FFF7B2FECE
:1004E0000420009068464471077109206946C006DF
:1004F000FFF770FE01220021CA48FFF7A3FE6846FD
:100500000096447107716946C648FFF763FE0420F0
:10051000009068464471067185716946C148FFF7CD
:1005200059FE0421BF48FFF79DFE092002220B213E
:10053000C006FFF787FEF00200906846447107711D
:1005400009206946C006FFF745FE30030090684663
:1005500044710671857109206946C006FFF73AFEAD
:1005600009203103C006FFF77DFE40200090684659
:100570004471067185716946A948FFF72BFE402139
:10058000A748FFF76FFE802000906846447106710F
:1005900085716946A248FFF71DFE8021A048FFF73C
:1005A00061FEF00300906846447106718571092070
:1005B0006946C006FFF70EFE0920F103C006FFF7EB
:1005C00051FE0820009068464471067185716946A5
:1005D0009448FFF7FFFD08219248FFF743FE0122F0
:1005E00004219048FFF72EFE1020009068464471C9
:1005F000077169468B48FFF7EDFD01220521894807
:10060000FFF720FE2020009068464471077169467C
:100610008448FFF7DFFD8020009068464471067132
:10062000857169467F48FFF7D5FD80217D48FFF73A
:1006300019FE40200090684644710571C6716946F4
:100640007848FFF7C7FD8020009068464471067126
:10065000857169467348FFF7BDFD80217148FFF73A
:1006600001FE30020090684644710671857169464A
:100670006C48FFF7AFFD31026A48FFF7F3FD7002E7
:100680000090684644710671857169466548FFF7B8
:10069000A1FD71026348FFF7E5FD684600974471CC
:1006A0000471C57109206946C006FFF793FD082053
:1006B0000090684644710471C57109206946C006FE
:1006C000FFF788FD10200090684644710471C571E1
:1006D00009206946C006FFF77DFD2020009068468E
:1006E00044710471C57109206946C006FFF772FDA7
:1006F00040200090684644710471C5710920694624
:10070000C006FFF767FD80200090684644710471C1
:10071000C57109206946C006FFF75CFD6846009771
:1007200044710471C57169463E48FFF753FD3003BB
:10073000009068464471057169463A48FFF74AFDE2
:10074000B002009068464471057169463548FFF76C
:1007500041FDF0020090684644710571C67169461A
:100760003048FFF737FD092002220821C006FFF7B5
:1007700069FD30020090684644710771092069469E
:10078000C006FFF727FD09210222C806FFF75AFD20
:100790007002009068464471077109206946C006DE
:1007A000FFF718FD092002220A21C006FFF74AFDC3
:1007B000B002009068464471077109206946C0067E
:1007C000FFF708FD7003009068464471067185715B
:1007D00069461448FFF7FEFC71031248FFF742FD1B
:1007E000B0030090684644710671857169460D48F2
:1007F000FFF7F0FCB1030B48FFF734FDF003009066
:10080000684644710671857169460648FFF7E2FC47
:10081000F1030448FFF726FDFEBD00000008004874
:1008200000140048000400487047704710B5FFF7F7
:10083000F5FD10BD044A0029516901D0014300E0D3
:10084000814351617047000000100240000980217F
:10085000084380B2034AC343D06808400343D360CF
:10086000704700000028004070B50D4A0021126852
:1008700004230B4C1A40403CA368860C0546F54007
:10088000ED0B15400340E2682B4300090240002BAA
:1008900003D01004000C00D00121084670BD0000F8
:1008A0004028004010B5012424032046FFF7DCFF58
:1008B000002808D00320FFF781FC2046FFF7C6FF81
:1008C0006001FFF76BFC10BD704700003CB50023D2
:1008D0002048009301930168012421430160022113
:1008E00005252D0302680A400192009A521C0092CD
:1008F000019A002A02D1009AAA42F3D10268920713
:1009000026D5154B1F2201941A6042684260426846
:10091000426042687F23DB039A434260426821239E
:10092000DB031A434260026801231B061A4302607C
:1009300002689201FCD542689208920042604268C7
:100940000A43426041680907890F0229FAD13CBD78
:1009500001933CBD00100240002002400248416863
:10096000491C4160704700004C00002010B514483D
:1009700001680122114301604168124A114041603F
:100980000168114A114001600168012292049143FB
:10099000016041683F22120491434160C16A090924
:1009A0000901C162016BFF22543291430163416B23
:1009B00049084900416300218160FFF787FF10BDAE
:1009C000001002400CB8FFF8FFFFF6FE0C4D0D4C76
:1009D000002626600CE040198279022A05D2001D0B
:1009E00088472168C900491988712068401C206027
:1009F0002268D00029580029EBD0102AE9D2EAE772
:100A0000640000204C000020F0B50022134D00E0EF
:100A1000521CD4002B59002B03D0834201D0102A42
:100A2000F6D3D300EF5800230526874203D160197F
:100A3000838083710DE0102A0DD0285160198380C6
:100A40008371074802710C22427010224271C02249
:100A500042800E70F0BD06200870F0BD64000020DA
:100A60005400002002E008C8121F08C1002AFAD171
:100A700070477047002001E001C1121F002AFBD11E
:100A800070470000044A52680068101A884201D377
:100A900001207047002070474C0000200149496840
:100AA000016070474C00002011487D21C90000689A
:100AB000FFF73CFB0F49401E884201D901200CE0A2
:100AC0000D4948610D480722C3691B021B0A4C04EB
:100AD0002343C361002088610A61002800D0FEE73B
:100AE00007490848FFF790FFFFF770FFFEE7000097
:100AF00000000020FFFFFF0000E000E004ED00E048
:100B000054000020090B000810B504460088002896
:100B100005D0122809D000202080032010BDFFF747
:100B200085FE04490448FFF76FFF12202080012052
:100B300010BD00005400002071020008090A0101E4
:100B4000000200040040000000000200000002005B
:100B5000020102020202000D080809060700070749
:100B60000707070705000004000800100400000044
:100B7000000008000000080000000800000010004D
:100B80000020000100010002400080000100000080
:100B90000000080000000400000008000000080039
:100BA0000000080000000800000002000020000112
:100BB000000100024000800001000000DC0B000882
:100BC0000000002064000000640A0008400C0008D7
:100BD0006400002084040000740A0008006CDC0239
:100BE00000000000000000000102030406070809DD
:100BF000003801400000004800000048000800489C
:100C00000008004800080048000C004800080048A0
:100C10000004004800080048000800480008004898
:100C2000000800480000004800000000000000002C
:100C300000000000100000000000000000000000A4
:04000005080000C12E
:00000001FF
