:020000040800F2
:10000000F8040020D5000008790B00089D050008C1
:1000100000000000000000000000000000000000E0
:10002000000000000000000000000000C10C0008FB
:100030000000000000000000C10B0008550D000882
:1000400005010008050100089D0C000805010008D5
:10005000050100080501000805010008AD040008BD
:100060000000000005010008050100080501000866
:100070000501000805010008050100080000000056
:100080000501000805010008000000000501000846
:100090000501000805010008050100080501000828
:1000A0000501000805010008050100080501000818
:1000B0000501000800000000000000000501000824
:1000C0000348854600F048F80048004741140008FE
:1000D000F80400200C4880F308880C480168090ED9
:1000E0000B4A914205D10B480B4901600B480C4962
:1000F00001600C4880470C480047FEE7FEE7FEE73A
:10010000FEE7FEE7FEE70000F80400200400000020
:100110001F00000018100240010000000000014014
:1001200000000000650D0008C100000830B50B4656
:10013000014600202022012409E00D46D5409D42C1
:1001400005D31D469540491B254695404019154647
:10015000521E002DF1DC30BD064C0125064E05E097
:10016000E36807CC2B430C3C98471034B442F7D3D8
:10017000FFF7AAFF701500089015000810B58CB0A5
:1001800000F03AF80121084600F020FD104C20460E
:1001900000F02AF90F4800900F48019007200390C3
:1001A0008020059000214000029106908000079079
:1001B00020200491089000020A9109906946204687
:1001C00000F056F90121204600F002F90CB010BDF4
:1001D0000800024040240140E4000020836A0B43F1
:1001E0008362426170470029816801D0012200E0EA
:1001F000022211438160704730B501214D0287B062
:10020000284600F007FD294C204600F063F86846B8
:1002100000F0B1F8002069460090087121150291A4
:1002200040210490039105906946204600F088F82B
:10023000002202212046FFF7D1FF0022082120469C
:10024000FFF7CCFF002210212046FFF7C7FF002256
:1002500020212046FFF7C2FF002240212046FFF761
:10026000BDFF002280212046FFF7B8FF002229466B
:100270002046FFF7B3FF204600F03CF8022120465D
:1002800000F020F80121204600F012F8012120465C
:10029000FFF7A9FF0121204600F043F80028F9D01C
:1002A000204600F063F807B030BD00000024014094
:1002B0000029C16802D00122114301E04908490028
:1002C000C1607047C26802239A43C260C2680A4391
:1002D000C2607047064910B5884208D14415012113
:1002E000204600F0A3FC0021204600F09FFC10BD3A
:1002F00000240140826800210123DB071A43826049
:100300000F231B038268491CD20FD207994201D0E8
:10031000002AF7D18168002901DB006C70470020BA
:10032000704702460020CB0104D5926801231B06CA
:100330009A4300E012680A4200D001207047000092
:1003400030B5C268084B8C681A400B680D7923439E
:10035000CC686D032C4323430C69496923430B4349
:100360001343C36030BD000003D2FFFF8168042245
:100370001143816070470021016001718160C1609B
:1003800001614161704710B504460088002807D01C
:10039000652807D0682803D000202080032010BDE6
:1003A00065202080022000F055F8002801D00020B0
:1003B00010BD022000F004F868202080012010BD4C
:1003C000C10001D4014948607047000000000240AC
:1003D0000029016802D00122114301E0014A1140C5
:1003E00001607047FEFF00000168184A114001607B
:1003F0000021016041608160C1601549144A0839DB
:10040000904202D148680F2205E0114A143290420E
:1004100004D14868F0221043486070470C4A2832E3
:10042000904203D148680F221202F4E7084A3C3296
:10043000904203D148680F221203ECE7044A50327D
:100440009042EAD148680F221204E4E7FEFF000060
:1004500008000240024600200146D30001D40349AF
:100460000968114200D001207047000000000240DE
:1004700030B503680C4A0C6A13408A684D69224300
:100480000C692C4322438C692243CC6922434C6A79
:1004900022438C6A22431A430260CA6842600A6897
:1004A00082604968C16030BD0F80FFFF10B5012434
:1004B0006403204600F010F8002805D0204600F024
:1004C00005F8012000F012F810BD00000149486154
:1004D0007047000000040140034A014652690020B1
:1004E0000A4200D00120704700040140034A410045
:1004F000515A034A80001058018570471A150008A8
:1005000020000020F0B50022032501230C68934051
:100510001C409C422AD10C79012C01D0022C12D112
:10052000876854002E46A640B74387604E79A640A0
:1005300084682643866084889C43848084888B7981
:1005400093401C438480066853002C469C40A6437D
:1005500006600E7907689E403E430660C668A64363
:10056000C660CC799C40C3681C43C460521C102AEE
:10057000CBD3F0BD4B07DB0E9A40C90810B58900FC
:100580000818016A0F249C40A1430162016A1143CB
:10059000016210BD0185704781617047FEE7000070
:1005A000F8B504460088002806D0FF387C2876D0AD
:1005B000002020800320F8BD5E4D012168685E4E5A
:1005C00048405E4F68603946304602D0FFF7E4FF8E
:1005D00001E0FFF7DFFF686859490028304602D084
:1005E000FFF7DAFF01E0FFF7D5FF6868554E0028F6
:1005F00004D001213046FFF7CFFF03E00121304650
:10060000FFF7C8FF6868002804D004214E48FFF7B0
:10061000C3FF03E004214C48FFF7BCFF01216868D9
:1006200049030028484802D0FFF7B6FF01E0FFF772
:10063000B1FF686839460028434802D0FFF7ACFF95
:1006400001E0FFF7A7FF68683D4900283E4802D057
:10065000FFF7A2FF01E0FFF79DFF6868002804D0C4
:1006600040213046FFF798FF03E040213046FFF776
:1006700091FF6868002804D080213046FFF78CFF86
:1006800003E080213046FFF785FF09266868F606FB
:1006900000282B49304603D0FFF77EFF02E040E000
:1006A000FFF778FF6868002804D008212648FFF784
:1006B00073FF03E008212448FFF76CFF01216868FD
:1006C00009030028304602D0FFF766FF01E0FFF77C
:1006D00061FFFF216868013100281B4802D0FFF745
:1006E0005BFF01E0FFF756FF01216868490200281F
:1006F000154802D0FFF750FF01E0FFF74BFF686895
:10070000002804D040211048FFF746FF03E04021B5
:100710000D48FFF73FFF074800F08CFEFF207C30BC
:1007200020806421034800F079FE002800D043E7D0
:10073000F8BD00005C0000200008004800400000F8
:10074000008000000014004800040048FEB50121AC
:10075000480400F03BFA0121880400F037FA012137
:10076000C80400F033FA0121880500F02FFA0120B7
:10077000400300900325684645710024047101265A
:10078000C6716946F948FFF7BDFEB00300906846A0
:100790004571067184716946F448FFF7B3FEB103F1
:1007A000F248FFF7F7FEF0030090684645710671C6
:1007B00084716946ED48FFF7A5FEF103EB48FFF7AA
:1007C000E9FE684600964571067184716946E848FD
:1007D000FFF798FE0121E648FFF7DCFE0227684696
:1007E000009745710471C6716946E148FFF78AFEBA
:1007F0006846009645710471C67109206946C006B5
:10080000FFF780FE042000906846457107718471EF
:10081000C47109206946C006FFF774FE0920002252
:100820000221C006FFF7A6FE6846009645710771D3
:100830008471C4716946CF48FFF764FE012200212C
:10084000CC48FFF797FE042000906846457106717A
:1008500084716946C748FFF755FE0421C548FFF774
:1008600099FEF00200906846077145718471C47169
:1008700009206946C006FFF745FE092002220B2128
:10088000C006FFF777FE3003009068464571067199
:10089000847109206946C006FFF734FE0920310340
:1008A000C006FFF777FE402000906846457106714C
:1008B00084716946AE48FFF725FE4021AC48FFF73A
:1008C00069FE802000906846457106718471694612
:1008D000A748FFF717FE8021A548FFF75BFEF0034E
:1008E0000090684645710671847109206946C0060A
:1008F000FFF708FE0920F103C006FFF74BFE0820B2
:100900000090684645710671847169469948FFF701
:10091000F9FD08219748FFF73DFE1020009068463A
:10092000457107718471C47169469248FFF7EAFD09
:10093000012204218F48FFF71DFE20200090684609
:10094000457107718471C47169468A48FFF7DAFD01
:10095000012205218748FFF70DFE802000906846A0
:1009600045710671847169468248FFF7CBFD80218D
:100970008048FFF70FFE40200090684645710471E3
:10098000C67169467B48FFF7BDFD80200090684630
:1009900045710671847169467648FFF7B3FD802181
:1009A0007448FFF7F7FD3002009068464571067104
:1009B000847169466F48FFF7A5FD31026D48FFF766
:1009C000E9FD7002009068464571067184716946C0
:1009D0006848FFF797FD71026648FFF7DBFD684640
:1009E000009745710571C47109206946C006FFF77B
:1009F00089FD08200090684645710571C471092081
:100A00006946C006FFF77EFD1020009068464571DC
:100A10000571C47109206946C006FFF773FD2020E7
:100A20000090684645710571C47109206946C00689
:100A3000FFF768FD40200090684645710571C4715C
:100A400009206946C006FFF75DFD802000906846DA
:100A500045710571C47109206946C006FFF752FD52
:100A60006846009745710571C47169464148FFF7B2
:100A700049FD3003009068464571047169463D4860
:100A8000FFF740FDB0020090684645710471694669
:100A90003848FFF737FDF002009068464571047151
:100AA000C67169463348FFF72DFD30020090684655
:100AB000077145718471C47109206946C006FFF74A
:100AC00021FD092002220821C006FFF753FD700214
:100AD00000906846077145718471C47109206946A8
:100AE000C006FFF70FFD09210222C806FFF742FDED
:100AF000B00200906846077145718471C471092085
:100B00006946C006FFF7FEFC092002220A21C00642
:100B1000FFF730FD700300906846457106718471DF
:100B200069461448FFF7EEFC71031248FFF732FDE7
:100B3000B0030090684645710671847169460D489E
:100B4000FFF7E0FCB1030B48FFF724FDF003009032
:100B5000684645710671847169460648FFF7D2FC04
:100B6000F1030448FFF716FDFEBD00000008004831
:100B70000014004800040048704700008307FF226B
:100B8000DB0E9A408907090E994000280BDA00070E
:100B9000000F0838830808489B001818C36993435E
:100BA0000B43C3617047830804489B00181803680F
:100BB00093430B430360704700ED00E000E400E066
:100BC000704710B5FFF7C2FD10BD0000044A0029B0
:100BD000516901D0014300E0814351617047000039
:100BE00000100240044A0029D16901D0014300E00D
:100BF0008143D1617047000000100240044A00297F
:100C0000116901D0014300E0814311617047000088
:100C100000100240044A0029916901D0014300E01C
:100C2000814391617047000000100240044A00298E
:100C3000D16801D0014300E08143D16070470000DA
:100C40000010024000098021084380B2034AC343D8
:100C5000D06808400343D36070470000002800407C
:100C600070B50D4A0021126804230B4C1A40403C19
:100C7000A368860C0546F540ED0B15400340E2687D
:100C80002B4300090240002B03D01004000C00D0BD
:100C90000121084670BD00004028004010B5012425
:100CA00024032046FFF7DCFF002808D00320FFF7CD
:100CB0001DFC2046FFF7C6FF6001FFF707FC10BDD3
:100CC000704700003CB50023204800930193016861
:100CD000012421430160022105252D0302680A40F9
:100CE0000192009A521C0092019A002A02D1009AA5
:100CF000AA42F3D10268920726D5154B1F22019410
:100D00001A60426842604268426042687F23DB03A7
:100D10009A43426042682123DB031A43426002681F
:100D200001231B061A43026002689201FCD5426847
:100D300092089200426042680A4342604168090793
:100D4000890F0229FAD13CBD01933CBD001002403D
:100D50000020024002484168491C41607047000081
:100D60004C00002010B514480168012211430160B5
:100D70004168124A114041600168114A1140016006
:100D80000168012292049143016041683F221204EC
:100D900091434160C16A09090901C162016BFF22E7
:100DA000543291430163416B49084900416300217A
:100DB0008160FFF787FF10BD001002400CB8FFF8FC
:100DC000FFFFF6FE30B5012189B00804FFF722FFCE
:100DD0001B4D284600F000F905A800F0ADFA684662
:100DE00000F066FA002468468482174815490068B6
:100DF000FFF79CF9401E069068468483C48205A9CB
:100E0000284600F05FFA6021684601800121418098
:100E10008480848109020182642002906946284608
:100E200000F02AF90821284600F064F9012128463B
:100E300000F0BCF80121284600F0C2F809B030BD2E
:100E400000400140A24400000000002030B5012114
:100E500089B0C802FFF7DEFE274D284600F0BCF837
:100E600005A800F069FA684600F022FA00246846F6
:100E70008482234821490068FFF758F9401E0690F4
:100E800068468483C48205A9284600F01BFA6021C5
:100E900068460180012141808480848109020182A9
:100EA000642002906946284600F0E6F86946284624
:100EB00000F026F96946284600F074F9694628468C
:100EC00000F0BAF90821284600F014F90821284654
:100ED00000F05EF90821284600F0A8F9082128460C
:100EE00000F0DCF90121284600F060F801212846D5
:100EF00000F066F809B030BD002C0140A2440000AB
:100F00000000002030B589B001210220FFF76AFE01
:100F1000234D284600F060F805A800F00DFA684659
:100F200000F0C6F90024684684821F481D49006805
:100F3000FFF7FCF8401E069068468483C48205A92A
:100F4000284600F0BFF960216846018001214180F8
:100F500084808481090201826420029069462846C7
:100F600000F08AF86946284600F0CAF86946284623
:100F700000F018F90821284600F0BCF8082128469E
:100F800000F006F90821284600F050F90121284612
:100F900000F00CF80121284600F012F809B030BD2D
:100FA00000040040A2440000000000200029018845
:100FB00002D00122114301E0490849000180704735
:100FC00040300029818803D00122D203114301E07F
:100FD0004904490C81807047204910B5884202D1EC
:100FE0000121C41425E01E49884206D101210220B6
:100FF000FFF704FE0021022008E01A49884208D1C8
:1010000001211020FFF7FAFD00211020FFF7F6FD67
:1010100010BD1549884207D1841501212046FFF7EC
:10102000EDFD00212046F1E71049884209D1012158
:101030000C042046FFF7FAFD00212046FFF7F6FDDD
:1010400010BD0B49884202D101214C04F1E7094946
:101050008842F5D101218C04EBE70000002C01400F
:10106000000400400010004000200040004001400B
:10107000004401400048014070B5028C5208520003
:101080000284048C8288038B7025AB439B080D88F7
:101090009B001D4302239C438E894B882643104CA2
:1010A0003343A04208D00F4CA04205D00E4CA042C2
:1010B00002D00E4CA0420DD10824A343CC891C437E
:1010C00004239C438B882343094C22400C8A1443FD
:1010D0004A8A22438280058389684163038470BD04
:1010E000002C014000400140004401400048014004
:1010F000FFFC0000028B08239A430A4302837047D7
:1011000070B5028C10239A430284048C8288038B6E
:101110001A4D2B400D782D062D0C1D4320239C438A
:101120008B891B051E0C4B8826431B051B0C144C7E
:101130003343A04202D0134EB04219D1124E324076
:101140000E8AB604360C3243A04211D18024A34348
:10115000CC892405240C1C4340239C438B881B050D
:101160001B0C2343094C22404C8AA404240C224328
:101170008280058389688163038470BDFF8C0000D1
:10118000002C014000400140FFFB0000FFF7000081
:10119000028B034B09021A40114301837047000080
:1011A000FFF7000030B5028C1A4B1A400284038C02
:1011B0008288848B7025AC43A4080D88A400254345
:1011C000154C23400C7B2406240C1C438B781B06F7
:1011D0001B0C2343114CA04215D1114C23408C7B96
:1011E0002406240C1C430F4B1C400B791B061B0CC4
:1011F00023430D4C22400C8A2405240C14434A8AB4
:101200001205120C2243828085838968C16303849E
:1012100030BD0000FFFE0000FFFD0000002C01407B
:10122000FFF70000FFFB0000FFCF0000828B0823C8
:101230009A430A438283704730B5028C124B1A409E
:101240000284058C8288838B104C23400C78240602
:10125000240C1C430E4B1D400B7B1B071B0C2B430C
:101260008D782D072D0C1D430A4B984205D10A4B52
:1012700013400A8A9205120C1A438280848389687B
:101280000164058430BD0000FFEF0000FF8C00000A
:10129000FFDF0000002C0140FFBF0000828B034BEA
:1012A00009021A401143818370470000FFF70000D4
:1012B000002101804180818081608181C181018222
:1012C0004182704710B50288144B984206D0012421
:1012D000A407A04202D0124CA04203D17024A24322
:1012E0004C8822430F4CA04203D00F4C22400C8963
:1012F000224302804A68C2620A880285984208D066
:101300000A4A904205D00A4A904202D0094A9042C5
:1013100001D1897A01860121818210BD002C014012
:101320000004004000100040FFFC000000400140AD
:1013300000440140004801400021C94341600021B0
:101340000180018141808172704700000C4D0D4C7D
:10135000002626600CE040198279022A05D2001D81
:1013600088472168C900491988712068401C20609D
:101370002268D00029580029EBD0102AE9D2EAE7E8
:10138000640000204C000020F0B50022134D00E066
:10139000521CD4002B59002B03D0834201D0102AB9
:1013A000F6D3D300EF5800230526874203D16019F6
:1013B000838083710DE0102A0DD02851601983803D
:1013C0008371074802710C22427010224271C022C0
:1013D00042800E70F0BD06200870F0BD6400002051
:1013E0005400002010B5FFF7EDFC10BD10B5FFF75D
:1013F0002DFD10BD10B5FFF785FD10BD02E008C83A
:10140000121F08C1002AFAD170477047002001E07E
:1014100001C1121F002AFBD170470000044A526824
:101420000068101A884201D30120704700207047DD
:101430004C00002001494968016070474C000020C1
:1014400012487D21C9000068FEF770FE411E104859
:101450000025ED43814203D9012000280AD0FEE790
:101460000C4C616103212846FFF788FB0020A06136
:101470000720206100212846FFF780FB0649074826
:10148000FFF782FFFFF762FFFEE700000000002089
:10149000FFFFFF0000E000E054000020A11400085E
:1014A00010B504460088002805D0172815D0002064
:1014B0002080032010BDFFF784FBFFF797FFFFF7A5
:1014C00099FFFFF78FFFFEF759FE06490648FFF721
:1014D0005BFF04490548FFF757FF172020800120D4
:1014E00010BD000054000020A1050008870300087B
:1014F000090A01010002000400400000000002008F
:1015000000000200020102020202000D08080906A2
:101510000700070707070707050000040008001079
:10152000040000000000080000000800000008009F
:1015300000001000002000010001000240008000B7
:101540000100000000000800000004000000080086
:101550000000080000000800000008000000020071
:101560000020000100010002400080000100000096
:10157000901500080000002064000000FC13000823
:10158000F415000864000020940400000C14000806
:10159000006CDC02000000000000000001020304F7
:1015A0000607080900380140000000480000004814
:1015B000000800480008004800080048000C0048E7
:1015C00000080048000400480008004800080048DF
:1015D0000008004800080048000000480000000023
:1015E00000000000000000001000000000000000EB
:0415F00000000000F7
:04000005080000C12E
:00000001FF
