:020000040800F2
:1000000010060020D50000089D0C00082F080008ED
:1000100000000000000000000000000000000000E0
:10002000000000000000000000000000490F000870
:100030000000000000000000350D00080510000859
:100040000501000805010008010F0008050100086E
:1000500005010008FF0500080501000889060008E1
:10006000000000001904000805010008050100084F
:100070000501000805010008050100080000000056
:100080000501000805010008000000000501000846
:100090000501000805010008050100080501000828
:1000A000050100080501000805010008DD1600082B
:1000B0000501000800000000000000000501000824
:1000C0000348854600F06CF800480047751A0008A0
:1000D000100600200C4880F308880C480168090EBF
:1000E0000B4A914205D10B480B4901600B480C4962
:1000F00001600C4880470C480047FEE7FEE7FEE73A
:10010000FEE7FEE7FEE70000100600200400000006
:100110001F00000018100240010000000000014014
:100120000000000015100008C100000830B50B46A3
:10013000014600202022012409E00D46D5409D42C1
:1001400005D31D469540491B254695404019154647
:10015000521E002DF1DC30BD03460B439B0703D03C
:1001600009E008C9121F08C0042AFAD203E00B787C
:100170000370401C491C521EF9D27047D2B201E0F4
:100180000270401C491EFBD270470022F6E710B5F2
:1001900013460A4604461946FFF7F0FF204610BDF5
:1001A000064C0125064E05E0E36807CC2B430C3CCA
:1001B00098471034B442F7D3FFF786FF881C000835
:1001C000A81C000870B58C180578401C6B075B0FE5
:1001D00001D10378401C2A1106D10278401C03E0AB
:1001E00006780E70401C491C5B1EF9D12B0705D404
:1001F0000023521E0DD40B70491CFAE70378401CF3
:10020000CB1A921C03E01D780D70491C5B1C521E1A
:10021000F9D5A142D8D3002070BD10B500F012F876
:1002200000F02AF910BD836A0B4383624261704774
:100230000029816801D0012200E00222114381607F
:100240007047000030B501214D0287B0284600F00C
:100250009BFD294C204600F063F8684600F0B1F899
:1002600000206946009008712115029140210490F8
:10027000039105906946204600F088F8002202218B
:100280002046FFF7D0FF002208212046FFF7CBFFD2
:10029000002210212046FFF7C6FF00222021204621
:1002A000FFF7C1FF002240212046FFF7BCFF0022DC
:1002B00080212046FFF7B7FF002229462046FFF79E
:1002C000B2FF204600F03CF80221204600F020F862
:1002D0000121204600F012F801212046FFF7A8FF77
:1002E0000121204600F043F80028F9D0204600F014
:1002F00063F807B030BD0000002401400029C16848
:1003000002D00122114301E049084900C160704751
:10031000C26802239A43C260C2680A43C26070473F
:10032000064910B5884208D144150121204600F045
:1003300037FD0021204600F033FD10BD00240140B0
:10034000826800210123DB071A4382600F231B030D
:100350008268491CD20FD207994201D0002AF7D1F6
:100360008168002901DB006C70470020704702465D
:100370000020CB0104D5926801231B069A4300E0BC
:1003800012680A4200D001207047000030B5C268F0
:10039000084B8C681A400B680D792343CC686D03B9
:1003A0002C4323430C69496923430B431343C36024
:1003B00030BD000003D2FFFF816804221143816039
:1003C00070470021016001718160C160016141617C
:1003D00070470188002905D0852903D000210180BC
:1003E000032070478521018001207047002070475D
:1003F00000207047704770477047000010B501211A
:100400004903044800F008FA002801D0002010BD7C
:10041000012010BD0008004810B5022000F09EF831
:1004200000280CD0012000F013F8074801220168D1
:1004300051400160054803D0802100F0F6F910BD5D
:10044000802100F0F0F910BD6C000020001400487D
:10045000C10001D40149486070470000000002401B
:100460000029016802D00122114301E0014A114034
:1004700001607047FEFF000030B501218DB00846D5
:1004800000F05EFC174D284600F032F81648019047
:100490001648029007200490802006900024400017
:1004A0000790039480000890202009900594000292
:1004B0000A9001A90B94284600F066F80122022157
:1004C000284600F059F80920694608704C70012050
:1004D0008870684600F0E4FB01212846FFF7C0FF62
:1004E0000DB030BD0800024040240140BC01002096
:1004F0000168184A1140016000210160416081607B
:10050000C1601549144A0839904202D148680F2247
:1005100005E0114A1432904204D14868F022104399
:10052000486070470C4A2832904203D148680F2235
:100530001202F4E7084A3C32904203D148680F2285
:100540001203ECE7044A50329042EAD148680F2285
:100550001204E4E7FEFF000008000240024600200B
:100560000146D30001D403490968114200D001209B
:100570007047000000000240002A026801D00A43D0
:1005800000E08A430260704730B503680C4A0C6A89
:1005900013408A684D6922430C692C4322438C69BD
:1005A0002243CC6922434C6A22438C6A22431A4379
:1005B0000260CA6842600A6882604968C16030BDF2
:1005C0000F80FFFF3EB50121084600F0DDFB002152
:1005D000084600F0BBFC0124002069460094087125
:1005E000102048718C71684600F08CF8052069462F
:1005F00008724C728C7202A800F052FB3EBD10B51E
:10060000012000F075F8002803D000BF012000F0A1
:1006100069F810BD3EB50121084600F0B5FB0C217C
:10062000012000F093FC0A21012000F08FFC0B2137
:10063000012000F08BFC0D21022000F087FC01203E
:1006400000030090002569460D71102048710124B7
:100650008C71684600F056F8A0020090684600F0E1
:1006600051F8E0020090684600F04CF860030090FA
:10067000684600F047F80720694608724D728C7290
:1006800002A800F00DFB3EBD10B501242403204656
:1006900000F02EF8002803D000BF204600F022F81A
:1006A0000124A402204600F023F8002803D000BF54
:1006B000204600F017F80124E402204600F018F864
:1006C000002803D000BF204600F00CF8012464038A
:1006D000204600F00DF8002803D000BF204600F0AF
:1006E00001F810BD01494861704700000004014055
:1006F000034A0146526900200A4200D00120704797
:100700000004014010B5837918490268002B26D0F7
:100710000B6893430B604A6803689A434A60027906
:10072000521813680468234313608A6803689A4365
:100730008A60CA6803689A43CA604279102A05D061
:1007400051180A68006802430A6010BD8A6803688D
:100750001A438A60CA6800680243CA6010BD007903
:10076000401801689143016010BD00000004014081
:10077000034A4100515A034A8000105801857047CE
:100780002A1C000830000020F0B5002203250123B8
:100790000C6893401C409C422AD10C79012C01D05A
:1007A000022C12D1876854002E46A640B7438760BA
:1007B0004E79A64084682643866084889C43848062
:1007C00084888B7993401C438480066853002C46B0
:1007D0009C40A64306600E7907689E403E43066033
:1007E000C668A643C660CC799C40C3681C43C460FD
:1007F000521C102ACBD3F0BD4B07DB0E9A40C90820
:1008000010B589000818016A0F249C40A1430162B9
:10081000016A1143016210BD0246128A00200A4299
:1008200000D0012070470185704781617047FEE765
:1008300010B5FFF7C7FEFFF7EDFE10BDFEB50121B5
:10084000480400F07DFA0121880400F079FA0121C2
:10085000C80400F075FA0121880500F071FA012042
:100860004003009003256846457100240471022668
:10087000C6716946FE48FFF787FF7003009068461F
:1008800045710121017184716946F948FFF77CFFC8
:100890007103F748FFF7C7FFB00300906846457142
:1008A0000121017184716946F148FFF76DFFB103C1
:1008B000EF48FFF7B8FF012000906846457101211D
:1008C000017184716946EB48FFF75EFF0121E94839
:1008D000FFF7A9FF68460096457104710121C171B7
:1008E0006946E448FFF750FF0120009068464571D3
:1008F00004710121C17109206946C006FFF744FF58
:10090000042000906846457106718471C471092005
:100910006946C006FFF738FF092000220221C00601
:10092000FFF76AFF012000906846457106718471E7
:10093000C4716946D048FFF727FF01220021CE4845
:10094000FFF75AFF042000906846457101210171AC
:1009500084716946C848FFF717FF0421C648FFF7AE
:1009600062FFB00200906846067145718471C471DF
:1009700009206946C006FFF707FF092002220B2164
:10098000C006FFF739FFF00200906846457101216B
:100990000171847109206946C006FFF7F5FE092040
:1009A000F102C006FFF73FFF4027684600974571F8
:1009B0000121017184716946AE48FFF7E5FE4021CF
:1009C000AC48FFF730FF8020009068464571012158
:1009D000017184716946A748FFF7D6FE8021A548BA
:1009E000FFF721FFB00300906846457101210171B6
:1009F000847109206946C006FFF7C6FE0920B103CD
:100A0000C006FFF710FF08200090684645710121DD
:100A10000171847169469848FFF7B6FE082196482F
:100A2000FFF701FF10200090684645710671847140
:100A3000C47169469048FFF7A7FE012204218E4841
:100A4000FFF7DAFE20200090684645710671847138
:100A5000C47169468848FFF797FE01220521864840
:100A6000FFF7CAFE8020009068464571067101219B
:100A7000C17169468048FFF787FE002207217E4842
:100A8000FFF7BAFE68460097457106718471C4711C
:100A900069467948FFF778FE002206217648FFF77D
:100AA000ABFE40217448FFF7C0FEF001009068469D
:100AB000457101210171847169466F48FFF764FE39
:100AC000F1016D48FFF7AFFE3002009068464571B6
:100AD00001210171847169466748FFF755FE3102B3
:100AE0006548FFF7A0FE6846009645710571C47120
:100AF00009206946C006FFF747FE082000906846B7
:100B000045710571C47109206946C006FFF73CFEB6
:100B100010200090684645710571C471092069462E
:100B2000C006FFF731FE2020009068464571057130
:100B3000C47109206946C006FFF726FE6846009783
:100B400045710571C47109206946C006FFF71CFE96
:100B500080200090684645710571C471092069467E
:100B6000C006FFF711FE6846009645710571C47115
:100B700069464148FFF708FEF0020090684645715B
:100B800004710121C17169463B48FFF7FDFD770201
:100B900068460097457104710121C1716946364864
:100BA000FFF7F2FDB0020090684645710471012123
:100BB000C17169463048FFF7E7FDF00100906846D3
:100BC000067145718471C47109206946C006FFF73A
:100BD000DBFD092002220821C006FFF70DFE3002CE
:100BE00000906846067145718471C4710920694698
:100BF000C006FFF7C9FD09210222C806FFF7FCFD68
:100C000068460097067145718471C4710920694670
:100C1000C006FFF7B9FD092002220A21C006FFF72E
:100C2000EBFD30030090684645710121017184712C
:100C300069461148FFF7A8FD31030F48FFF7F3FDA0
:100C40007003009068464571012101718471694605
:100C50000948FFF799FD71030748FFF7E4FDB0036A
:100C6000009068464571012101718471694605E073
:100C70000008004800140048000400480348FFF73B
:100C800083FDB1030148FFF7CEFDFEBD000400481F
:100C90000020704700207047704770477047000081
:100CA00030B5827801240178002A15D08B080E4ACD
:100CB0009B009A1813688907C90EFF258D40AB4326
:100CC0004578AD072D0E8D401D4315600078C00698
:100CD000C00E8440054804E0C806C00E84400348A6
:100CE0008030046030BD000000E400E000E100E07E
:100CF0008307FF22DB0E9A408907090E99400028DE
:100D00000BDA0007000F0838830808489B00181802
:100D1000C36993430B43C3617047830804489B0036
:100D20001818036893430B430360704700ED00E01D
:100D300000E400E0704710B5FFF780FD10BD000033
:100D4000044A0029516901D0014300E08143516107
:100D50007047000000100240044A0029D16901D008
:100D6000014300E08143D161704700000010024060
:100D7000044A0029116901D0014300E08143116157
:100D80007047000000100240044A0029916901D018
:100D9000014300E081439161704700000010024070
:100DA000044A0029D16801D0014300E08143D160A9
:100DB0007047000000100240F8B5354E04467168D7
:100DC00000200C22334D114005D0042903D00829FE
:100DD00003D00C2918D0256018E0716870680322D0
:100DE0008902D2030F0F1040BF1C002809D0F06AFF
:100DF0000107090F2846491CFFF798F9784320603E
:100E000004E025487843FAE7244921607168244FBB
:100E10000906090F7B5C21680A46DA406260736844
:100E20005B055B0FFB5CDA40A260336BDB0501D432
:100E30001C4B05E073685B0401D4530800E0930881
:100E4000E360336BDB0601D4656100E06161336B05
:100E50009B070ED0336B9B079B0F012B0BD0316B85
:100E60008907890F022908D0316BC943890707D048
:100E700007E0A26105E0A16103E00121C903FAE7EF
:100E8000A561E261316B090600D404486062F8BDD7
:100E90000010024000127A0000093D00006CDC02E4
:100EA00014000020809FD50000098021084380B2F3
:100EB000034AC343D06808400343D360704700002F
:100EC0000028004070B50D4A0021126804230B4C25
:100ED0001A40403CA368860C0546F540ED0B1540D2
:100EE0000340E2682B4300090240002B03D01004AA
:100EF000000C00D00121084670BD000040280040D1
:100F000010B5012424032046FFF7DCFF002808D099
:100F10000320FFF72DFC2046FFF7C6FF6001FFF717
:100F2000E1FB10BD7047000010B502210148FFF73A
:100F300073FC10BD00140048704710B50920012152
:100F4000C006FFF769FC10BD704700008A0710B5A6
:100F5000120F0F2393408C080549A40061188C6878
:100F60009C438C608B68904003438B6010BD0000F5
:100F7000000001403CB50023204800930193016824
:100F8000012421430160022105252D0302680A4046
:100F90000192009A521C0092019A002A02D1009AF2
:100FA000AA42F3D10268920726D5154B1F2201945D
:100FB0001A60426842604268426042687F23DB03F5
:100FC0009A43426042682123DB031A43426002686D
:100FD00001231B061A43026002689201FCD5426895
:100FE00092089200426042680A43426041680907E1
:100FF000890F0229FAD13CBD01933CBD001002408B
:101000000020024002484168491C416070470000CE
:101010005C00002010B514480168012211430160F2
:101020004168124A114041600168114A1140016053
:101030000168012292049143016041683F22120439
:1010400091434160C16A09090901C162016BFF2234
:10105000543291430163416B4908490041630021C7
:101060008160FFF787FF10BD001002400CB8FFF849
:10107000FFFFF6FE30B5012189B00804FFF784FEBA
:101080001B4D284600F010F905A800F0C5FA684687
:1010900000F076FA002468468482174815490068F3
:1010A000FFF744F8401E069068468483C48205A971
:1010B000284600F077FA60216846018001214180CE
:1010C0008480848109020182642002906946284656
:1010D00000F03AF90821284600F074F90121284669
:1010E00000F0CCF80121284600F0D2F809B030BD5C
:1010F00000400140A24400000000002030B5012162
:1011000089B0C802FFF740FE2F4D284600F0CCF80A
:1011100005A800F081FA684600F032FA002468461B
:1011200084822B4829490068FFF700F8401E06908A
:1011300068468483C48205A9284600F033FA6021FA
:1011400068460180012141808480848109020182F6
:10115000642002906946284600F0F6F86946284661
:1011600000F036F96946284600F084F969462846B9
:1011700000F0CAF90821284600F024F90821284681
:1011800000F06EF90821284600F0B8F90821284639
:1011900000F0ECF90121284600F070F80121284602
:1011A00000F076F80021284600F0F4F900212846E6
:1011B00000F0F2F90021284600F0F0F9002128465D
:1011C00000F0EEF909B030BD002C0140A24400004F
:1011D0000000002030B589B001210220FFF7BCFDDE
:1011E000234D284600F060F805A800F015FA68467F
:1011F00000F0C6F90024684684821F481D49006833
:10120000FEF794FF401E069068468483C48205A9B9
:10121000284600F0C7F9602168460180012141801D
:1012200084808481090201826420029069462846F4
:1012300000F08AF86946284600F0CAF86946284650
:1012400000F018F90821284600F0BCF808212846CB
:1012500000F006F90821284600F050F9012128463F
:1012600000F00CF80121284600F012F809B030BD5A
:1012700000040040A2440000000000200029018872
:1012800002D00122114301E0490849000180704762
:1012900040300029818803D00122D203114301E0AC
:1012A0004904490C81807047204910B5884202D119
:1012B0000121C41425E01E49884206D101210220E3
:1012C000FFF756FD0021022008E01A49884208D1A4
:1012D00001211020FFF74CFD00211020FFF748FDF1
:1012E00010BD1549884207D1841501212046FFF71A
:1012F0003FFD00212046F1E71049884209D1012134
:101300000C042046FFF74CFD00212046FFF748FD66
:1013100010BD0B49884202D101214C04F1E7094973
:101320008842F5D101218C04EBE70000002C01403C
:101330000004004000100040002000400040014038
:10134000004401400048014070B5028C5208520030
:101350000284048C8288038B7025AB439B080D8824
:101360009B001D4302239C438E894B882643104CCF
:101370003343A04208D00F4CA04205D00E4CA042EF
:1013800002D00E4CA0420DD10824A343CC891C43AB
:1013900004239C438B882343094C22400C8A14432A
:1013A0004A8A22438280058389684163038470BD31
:1013B000002C014000400140004401400048014031
:1013C000FFFC0000028B08239A430A430283704704
:1013D00070B5028C10239A430284048C8288038B9C
:1013E0001A4D2B400D782D062D0C1D4320239C43B8
:1013F0008B891B051E0C4B8826431B051B0C144CAC
:101400003343A04202D0134EB04219D1124E3240A3
:101410000E8AB604360C3243A04211D18024A34375
:10142000CC892405240C1C4340239C438B881B053A
:101430001B0C2343094C22404C8AA404240C224355
:101440008280058389688163038470BDFF8C0000FE
:10145000002C014000400140FFFB0000FFF70000AE
:10146000028B034B09021A401143018370470000AD
:10147000FFF7000030B5028C1A4B1A400284038C2F
:101480008288848B7025AC43A4080D88A400254372
:10149000154C23400C7B2406240C1C438B781B0624
:1014A0001B0C2343114CA04215D1114C23408C7BC3
:1014B0002406240C1C430F4B1C400B791B061B0CF1
:1014C00023430D4C22400C8A2405240C14434A8AE1
:1014D0001205120C2243828085838968C1630384CC
:1014E00030BD0000FFFE0000FFFD0000002C0140A9
:1014F000FFF70000FFFB0000FFCF0000828B0823F6
:101500009A430A438283704730B5028C124B1A40CB
:101510000284058C8288838B104C23400C7824062F
:10152000240C1C430E4B1D400B7B1B071B0C2B4339
:101530008D782D072D0C1D430A4B984205D10A4B7F
:1015400013400A8A9205120C1A43828084838968A8
:101550000164058430BD0000FFEF0000FF8C000037
:10156000FFDF0000002C0140FFBF0000828B034B17
:1015700009021A401143818370470000FFF7000001
:10158000002101804180818081608181C18101824F
:10159000418270474163704781637047C163704700
:1015A0000164704710B50288144B984206D001249C
:1015B000A407A04202D0124CA04203D17024A2433F
:1015C0004C8822430F4CA04203D00F4C22400C8980
:1015D000224302804A68C2620A880285984208D083
:1015E0000A4A904205D00A4A904202D0094A9042E3
:1015F00001D1897A01860121818210BD002C014030
:101600000004004000100040FFFC000000400140CA
:1016100000440140004801400021C94341600021CD
:101620000180018141808172704700000C4D0D4C9A
:10163000002626600CE040198279022A05D2001D9E
:1016400088472168C900491988712068401C2060BA
:101650002268D00029580029EBD0102AE9D2EAE705
:101660003C0100205C000020F0B50022134D00E09A
:10167000521CD4002B59002B03D0834201D0102AD6
:10168000F6D3D300EF5800230526874203D1601913
:10169000838083710DE0102A0DD02851601983805A
:1016A0008371074802710C22427010224271C022DD
:1016B00042800E70F0BD06200870F0BD3C01002095
:1016C0006400002010B5FFF7D5FC10BD10B5FFF782
:1016D00015FD10BD10B5FFF77DFD10BD70B51D4D9A
:1016E0001B49284600F048F8002812D01A4C012067
:1016F0006061284600F0C0F840066168400E174A55
:101700005218491C6160107014216068FEF70EFDCC
:101710006160134E2846314600F02EF800280FD0A5
:101720000D4C1834207900280BD020680178284609
:1017300000F0A6F82068401C20602079401E20712F
:1017400070BD00223146284600F032F870BD00001E
:1017500005010500003801401C010020E8010020BF
:10176000070107000029016802D00122114301E0AE
:10177000490849000160704730B50A04130E01257D
:101780002A4600248A40012B0ED0022B0ED08368FB
:10179000090C1340C0698D402840002B02D000285E
:1017A00000D00124204630BD0368F1E74368EFE72D
:1017B00010B50B041C0E01238B40022C02D0032C0D
:1017C00002D002E0001D00E008300168002A01D0CC
:1017D000194300E09943016010BD000070B5044654
:1017E00000688AB00D46002640084000206060680E
:1017F000032109038843A9680143616020681A49ED
:10180000EA680840696811432A690243114321606C
:10181000A06803210902884369690143A160684601
:10182000FFF7CAFA1148844201D1069E03E010482E
:10183000844200D1079E20682968000401D5700009
:1018400000E03046FEF772FC2A6852088A4200D84F
:10185000401C2168090404D50107064A490F1040BD
:101860000843A0810AB070BDF3E9FFFF00380140D2
:1018700000440040F0FF0000808CC005C00D7047A0
:10188000C905C90D0185704730B5012189B04804EB
:10189000FFF756FA01218803FFF776FA1C4D002264
:1018A00007212846FEF7A8FF002206212846FEF75A
:1018B000A3FFC020009002206946087103204871F0
:1018C00000248C71CC712846FEF75EFF1B20694610
:1018D000087201204872887202A8FFF7E1F94B20D4
:1018E0000894C00104940594069403900C20094CBC
:1018F000079003A92046FFF771FF01220649204601
:10190000FFF756FF01212046FFF72CFF09B030BD3D
:1019100000040048003801400501050010B5002909
:1019200007D0044A10601171012203490348FFF7F0
:101930003FFF10BD340100200701070000380140BF
:1019400002E008C8121F08C1002AFAD17047704788
:10195000002001E001C1121F002AFBD170470000E6
:10196000044A52680068101A884201D30120704767
:10197000002070475C000020014949680160704701
:101980005C000020F8B500251C4C01262F4620687D
:101990008047E774A17C002904D0012906D00229E0
:1019A00026D117E0002823D1A67421E0E189491C43
:1019B00089B2E181002806D02089814200D3E674F3
:1019C000E781A77414E06089814211D30220E0749A
:1019D000A0740DE0002809D0E089401C80B2E081AD
:1019E000A189884204D30320E074E9E70420E0746D
:1019F00018346D1C072DCAD3F8BD000074000020F8
:101A000070B50B4C00252E46E07C00280BD0217DC4
:101A1000002907D06168002904D08847E07C0328AA
:101A200000D12682E67418346D1C072DECD370BDEE
:101A30007400002010B504460088002806D0FF3846
:101A400023280DD000202080032010BDFFF79AFF2F
:101A5000FFF7D6FF0648FFF78FFFFF2023302080D7
:101A60000A210348FFF77CFF0028EFD110BD0000DA
:101A70007000002012487D21C9000068FEF756FB67
:101A8000411E10480025ED43814203D90120002862
:101A90000AD0FEE70C4C616103212846FFF728F9C4
:101AA0000020A0610720206103212846FFF720F9CC
:101AB00006490748FFF7D8FDFFF7B8FDFEE700002D
:101AC00000000020FFFFFF0000E000E064000020B5
:101AD000911B000870B5044600880026194D0028A7
:101AE00006D0E52806D0E8280ED02680032070BD59
:101AF000E520208068690028F9D06E6111480C301B
:101B0000FFF73AFFE82020800E4819210C30FFF73C
:101B100027FF002802D168690028E8D068690028FA
:101B2000EBD16A68084908461430FEF715FB68686F
:101B30001421091A04486A6814308018FEF725FB3E
:101B40006E60D5E71C010020E801002010B50446B6
:101B50000088002806D0FF3804280DD000202080FF
:101B6000032010BD0A210848FFF7D8FE0748FFF7F9
:101B700003FFFF200430208064210448FFF7F0FEBB
:101B80000028EFD110BD00007E1C00082C010020B1
:101B900010B504460088002805D01D2821D000205B
:101BA0002080032010BDFFF7C6F8FEF741FEFFF7C7
:101BB0008DFDFFF78FFDFFF785FDFEF72EFBFFF78D
:101BC00063FE0A490A48FFF74FFD08490948FFF735
:101BD0004BFD06490848FFF747FD04490748FFF752
:101BE00043FD1D202080012010BD00006400002066
:101BF000D3030008351A0008D51A00084D1B000849
:101C0000090A010100020004004000000000020077
:101C100000000200020102020202000D080809068B
:101C20000700070707070707050000040008001062
:101C30000400000000000800000008000000080088
:101C400000001000002000010001000240008000A0
:101C5000010000000000080000000400000008006F
:101C6000000008000000080000000800000002005A
:101C7000002000010001000240008000010000017E
:101C80000203040506070809A81C0008000000203C
:101C90003C010000C4010008181D00083C010020A0
:101CA000D40400005019000811846CDC026809019A
:101CB000020304060708090C7910343801403A4839
:101CC000049A08045A0C08DA04182904493091B21D
:101CD0001013290F1B082504120712646A077C31B0
:101CE0001A3B140A11391813FD031B08F9041207D3
:101CF0001AC81A891813950C1B089B04E9301A910D
:101D0000140A1199181AF1443AF748C9181AED142F
:081D10000A11F5180120000082
:04000005080000C12E
:00000001FF
